{
    "contractName": "RocketToken",
    "abi": [
        {
            "inputs": [],
            "stateMutability": "nonpayable",
            "type": "constructor"
        },
        {
            "anonymous": false,
            "inputs": [
                {
                    "indexed": true,
                    "internalType": "address",
                    "name": "owner",
                    "type": "address"
                },
                {
                    "indexed": true,
                    "internalType": "address",
                    "name": "spender",
                    "type": "address"
                },
                {
                    "indexed": false,
                    "internalType": "uint256",
                    "name": "value",
                    "type": "uint256"
                }
            ],
            "name": "Approval",
            "type": "event"
        },
        {
            "anonymous": false,
            "inputs": [
                {
                    "indexed": true,
                    "internalType": "address",
                    "name": "previousOwner",
                    "type": "address"
                },
                {
                    "indexed": true,
                    "internalType": "address",
                    "name": "newOwner",
                    "type": "address"
                }
            ],
            "name": "OwnershipTransferred",
            "type": "event"
        },
        {
            "anonymous": false,
            "inputs": [
                {
                    "indexed": false,
                    "internalType": "address",
                    "name": "account",
                    "type": "address"
                }
            ],
            "name": "Paused",
            "type": "event"
        },
        {
            "anonymous": false,
            "inputs": [
                {
                    "indexed": true,
                    "internalType": "address",
                    "name": "from",
                    "type": "address"
                },
                {
                    "indexed": true,
                    "internalType": "address",
                    "name": "to",
                    "type": "address"
                },
                {
                    "indexed": false,
                    "internalType": "uint256",
                    "name": "value",
                    "type": "uint256"
                }
            ],
            "name": "Transfer",
            "type": "event"
        },
        {
            "anonymous": false,
            "inputs": [
                {
                    "indexed": false,
                    "internalType": "address",
                    "name": "account",
                    "type": "address"
                }
            ],
            "name": "Unpaused",
            "type": "event"
        },
        {
            "inputs": [],
            "name": "DOMAIN_SEPARATOR",
            "outputs": [
                {
                    "internalType": "bytes32",
                    "name": "",
                    "type": "bytes32"
                }
            ],
            "stateMutability": "view",
            "type": "function",
            "constant": true
        },
        {
            "inputs": [
                {
                    "internalType": "address",
                    "name": "owner",
                    "type": "address"
                },
                {
                    "internalType": "address",
                    "name": "spender",
                    "type": "address"
                }
            ],
            "name": "allowance",
            "outputs": [
                {
                    "internalType": "uint256",
                    "name": "",
                    "type": "uint256"
                }
            ],
            "stateMutability": "view",
            "type": "function",
            "constant": true
        },
        {
            "inputs": [
                {
                    "internalType": "address",
                    "name": "spender",
                    "type": "address"
                },
                {
                    "internalType": "uint256",
                    "name": "amount",
                    "type": "uint256"
                }
            ],
            "name": "approve",
            "outputs": [
                {
                    "internalType": "bool",
                    "name": "",
                    "type": "bool"
                }
            ],
            "stateMutability": "nonpayable",
            "type": "function"
        },
        {
            "inputs": [
                {
                    "internalType": "address",
                    "name": "account",
                    "type": "address"
                }
            ],
            "name": "balanceOf",
            "outputs": [
                {
                    "internalType": "uint256",
                    "name": "",
                    "type": "uint256"
                }
            ],
            "stateMutability": "view",
            "type": "function",
            "constant": true
        },
        {
            "inputs": [],
            "name": "decimals",
            "outputs": [
                {
                    "internalType": "uint8",
                    "name": "",
                    "type": "uint8"
                }
            ],
            "stateMutability": "view",
            "type": "function",
            "constant": true
        },
        {
            "inputs": [
                {
                    "internalType": "address",
                    "name": "spender",
                    "type": "address"
                },
                {
                    "internalType": "uint256",
                    "name": "subtractedValue",
                    "type": "uint256"
                }
            ],
            "name": "decreaseAllowance",
            "outputs": [
                {
                    "internalType": "bool",
                    "name": "",
                    "type": "bool"
                }
            ],
            "stateMutability": "nonpayable",
            "type": "function"
        },
        {
            "inputs": [
                {
                    "internalType": "address",
                    "name": "spender",
                    "type": "address"
                },
                {
                    "internalType": "uint256",
                    "name": "addedValue",
                    "type": "uint256"
                }
            ],
            "name": "increaseAllowance",
            "outputs": [
                {
                    "internalType": "bool",
                    "name": "",
                    "type": "bool"
                }
            ],
            "stateMutability": "nonpayable",
            "type": "function"
        },
        {
            "inputs": [],
            "name": "name",
            "outputs": [
                {
                    "internalType": "string",
                    "name": "",
                    "type": "string"
                }
            ],
            "stateMutability": "view",
            "type": "function",
            "constant": true
        },
        {
            "inputs": [
                {
                    "internalType": "address",
                    "name": "owner",
                    "type": "address"
                }
            ],
            "name": "nonces",
            "outputs": [
                {
                    "internalType": "uint256",
                    "name": "",
                    "type": "uint256"
                }
            ],
            "stateMutability": "view",
            "type": "function",
            "constant": true
        },
        {
            "inputs": [],
            "name": "owner",
            "outputs": [
                {
                    "internalType": "address",
                    "name": "",
                    "type": "address"
                }
            ],
            "stateMutability": "view",
            "type": "function",
            "constant": true
        },
        {
            "inputs": [],
            "name": "paused",
            "outputs": [
                {
                    "internalType": "bool",
                    "name": "",
                    "type": "bool"
                }
            ],
            "stateMutability": "view",
            "type": "function",
            "constant": true
        },
        {
            "inputs": [
                {
                    "internalType": "address",
                    "name": "owner",
                    "type": "address"
                },
                {
                    "internalType": "address",
                    "name": "spender",
                    "type": "address"
                },
                {
                    "internalType": "uint256",
                    "name": "value",
                    "type": "uint256"
                },
                {
                    "internalType": "uint256",
                    "name": "deadline",
                    "type": "uint256"
                },
                {
                    "internalType": "uint8",
                    "name": "v",
                    "type": "uint8"
                },
                {
                    "internalType": "bytes32",
                    "name": "r",
                    "type": "bytes32"
                },
                {
                    "internalType": "bytes32",
                    "name": "s",
                    "type": "bytes32"
                }
            ],
            "name": "permit",
            "outputs": [],
            "stateMutability": "nonpayable",
            "type": "function"
        },
        {
            "inputs": [],
            "name": "renounceOwnership",
            "outputs": [],
            "stateMutability": "nonpayable",
            "type": "function"
        },
        {
            "inputs": [],
            "name": "symbol",
            "outputs": [
                {
                    "internalType": "string",
                    "name": "",
                    "type": "string"
                }
            ],
            "stateMutability": "view",
            "type": "function",
            "constant": true
        },
        {
            "inputs": [],
            "name": "totalSupply",
            "outputs": [
                {
                    "internalType": "uint256",
                    "name": "",
                    "type": "uint256"
                }
            ],
            "stateMutability": "view",
            "type": "function",
            "constant": true
        },
        {
            "inputs": [
                {
                    "internalType": "address",
                    "name": "to",
                    "type": "address"
                },
                {
                    "internalType": "uint256",
                    "name": "amount",
                    "type": "uint256"
                }
            ],
            "name": "transfer",
            "outputs": [
                {
                    "internalType": "bool",
                    "name": "",
                    "type": "bool"
                }
            ],
            "stateMutability": "nonpayable",
            "type": "function"
        },
        {
            "inputs": [
                {
                    "internalType": "address",
                    "name": "from",
                    "type": "address"
                },
                {
                    "internalType": "address",
                    "name": "to",
                    "type": "address"
                },
                {
                    "internalType": "uint256",
                    "name": "amount",
                    "type": "uint256"
                }
            ],
            "name": "transferFrom",
            "outputs": [
                {
                    "internalType": "bool",
                    "name": "",
                    "type": "bool"
                }
            ],
            "stateMutability": "nonpayable",
            "type": "function"
        },
        {
            "inputs": [
                {
                    "internalType": "address",
                    "name": "newOwner",
                    "type": "address"
                }
            ],
            "name": "transferOwnership",
            "outputs": [],
            "stateMutability": "nonpayable",
            "type": "function"
        },
        {
            "inputs": [],
            "name": "pause",
            "outputs": [],
            "stateMutability": "nonpayable",
            "type": "function"
        },
        {
            "inputs": [],
            "name": "unpause",
            "outputs": [],
            "stateMutability": "nonpayable",
            "type": "function"
        },
        {
            "inputs": [
                {
                    "internalType": "address",
                    "name": "to",
                    "type": "address"
                },
                {
                    "internalType": "uint256",
                    "name": "amount",
                    "type": "uint256"
                }
            ],
            "name": "mint",
            "outputs": [],
            "stateMutability": "nonpayable",
            "type": "function"
        }
    ],
    "bytecode": "0x6101406040523480156200001257600080fd5b506040518060400160405280600b81526020017f526f636b6574546f6b656e000000000000000000000000000000000000000000815250806040518060400160405280600181526020017f31000000000000000000000000000000000000000000000000000000000000008152506040518060400160405280600b81526020017f526f636b6574546f6b656e0000000000000000000000000000000000000000008152506040518060400160405280600681526020017f524f434b4554000000000000000000000000000000000000000000000000000081525081600390805190602001906200010492919062000570565b5080600490805190602001906200011d92919062000570565b5050506000600560006101000a81548160ff0219169083151502179055506200015b6200014f6200025360201b60201c565b6200025b60201b60201c565b60008280519060200120905060008280519060200120905060007f8b73c3c69bb8fe3d512ecc4cf759cc79239f7b179b0ffacaa9a75d522b39400f90508260e081815250508161010081815250504660a08181525050620001c48184846200032160201b60201c565b608081815250503073ffffffffffffffffffffffffffffffffffffffff1660c08173ffffffffffffffffffffffffffffffffffffffff16815250508061012081815250505050505050506200024d33620002236200035d60201b60201c565b600a620002319190620007ba565b620f42406200024191906200080b565b6200036660201b60201c565b62000b0e565b600033905090565b6000600560019054906101000a900473ffffffffffffffffffffffffffffffffffffffff16905081600560016101000a81548173ffffffffffffffffffffffffffffffffffffffff021916908373ffffffffffffffffffffffffffffffffffffffff1602179055508173ffffffffffffffffffffffffffffffffffffffff168173ffffffffffffffffffffffffffffffffffffffff167f8be0079c531659141344cd1fd0a4f28419497f9722a3daafe3b4186f6b6457e060405160405180910390a35050565b600083838346306040516020016200033e959493929190620008dd565b6040516020818303038152906040528051906020012090509392505050565b60006012905090565b600073ffffffffffffffffffffffffffffffffffffffff168273ffffffffffffffffffffffffffffffffffffffff161415620003d9576040517f08c379a0000000000000000000000000000000000000000000000000000000008152600401620003d0906200099b565b60405180910390fd5b620003ed60008383620004df60201b60201c565b8060026000828254620004019190620009bd565b92505081905550806000808473ffffffffffffffffffffffffffffffffffffffff1673ffffffffffffffffffffffffffffffffffffffff1681526020019081526020016000206000828254620004589190620009bd565b925050819055508173ffffffffffffffffffffffffffffffffffffffff16600073ffffffffffffffffffffffffffffffffffffffff167fddf252ad1be2c89b69c2b068fc378daa952ba7f163c4a11628f55a4df523b3ef83604051620004bf919062000a1a565b60405180910390a3620004db600083836200054f60201b60201c565b5050565b620004ef6200055460201b60201c565b1562000532576040517f08c379a0000000000000000000000000000000000000000000000000000000008152600401620005299062000a87565b60405180910390fd5b6200054a8383836200056b60201b62000c211760201c565b505050565b505050565b6000600560009054906101000a900460ff16905090565b505050565b8280546200057e9062000ad8565b90600052602060002090601f016020900481019282620005a25760008555620005ee565b82601f10620005bd57805160ff1916838001178555620005ee565b82800160010185558215620005ee579182015b82811115620005ed578251825591602001919060010190620005d0565b5b509050620005fd919062000601565b5090565b5b808211156200061c57600081600090555060010162000602565b5090565b7f4e487b7100000000000000000000000000000000000000000000000000000000600052601160045260246000fd5b60008160011c9050919050565b6000808291508390505b6001851115620006ae5780860481111562000686576200068562000620565b5b6001851615620006965780820291505b8081029050620006a6856200064f565b945062000666565b94509492505050565b600082620006c957600190506200079c565b81620006d957600090506200079c565b8160018114620006f25760028114620006fd5762000733565b60019150506200079c565b60ff84111562000712576200071162000620565b5b8360020a9150848211156200072c576200072b62000620565b5b506200079c565b5060208310610133831016604e8410600b84101617156200076d5782820a90508381111562000767576200076662000620565b5b6200079c565b6200077c84848460016200065c565b9250905081840481111562000796576200079562000620565b5b81810290505b9392505050565b6000819050919050565b600060ff82169050919050565b6000620007c782620007a3565b9150620007d483620007ad565b9250620008037fffffffffffffffffffffffffffffffffffffffffffffffffffffffffffffffff8484620006b7565b905092915050565b60006200081882620007a3565b91506200082583620007a3565b9250817fffffffffffffffffffffffffffffffffffffffffffffffffffffffffffffffff048311821515161562000861576200086062000620565b5b828202905092915050565b6000819050919050565b62000881816200086c565b82525050565b6200089281620007a3565b82525050565b600073ffffffffffffffffffffffffffffffffffffffff82169050919050565b6000620008c58262000898565b9050919050565b620008d781620008b8565b82525050565b600060a082019050620008f4600083018862000876565b62000903602083018762000876565b62000912604083018662000876565b62000921606083018562000887565b620009306080830184620008cc565b9695505050505050565b600082825260208201905092915050565b7f45524332303a206d696e7420746f20746865207a65726f206164647265737300600082015250565b600062000983601f836200093a565b915062000990826200094b565b602082019050919050565b60006020820190508181036000830152620009b68162000974565b9050919050565b6000620009ca82620007a3565b9150620009d783620007a3565b9250827fffffffffffffffffffffffffffffffffffffffffffffffffffffffffffffffff0382111562000a0f5762000a0e62000620565b5b828201905092915050565b600060208201905062000a31600083018462000887565b92915050565b7f5061757361626c653a2070617573656400000000000000000000000000000000600082015250565b600062000a6f6010836200093a565b915062000a7c8262000a37565b602082019050919050565b6000602082019050818103600083015262000aa28162000a60565b9050919050565b7f4e487b7100000000000000000000000000000000000000000000000000000000600052602260045260246000fd5b6000600282049050600182168062000af157607f821691505b6020821081141562000b085762000b0762000aa9565b5b50919050565b60805160a05160c05160e0516101005161012051612a2262000b5e60003960006111b4015260006111f6015260006111d50152600061110a01526000611160015260006111890152612a226000f3fe608060405234801561001057600080fd5b50600436106101375760003560e01c806370a08231116100b857806395d89b411161007c57806395d89b411461031a578063a457c2d714610338578063a9059cbb14610368578063d505accf14610398578063dd62ed3e146103b4578063f2fde38b146103e457610137565b806370a0823114610288578063715018a6146102b85780637ecebe00146102c25780638456cb59146102f25780638da5cb5b146102fc57610137565b80633644e515116100ff5780633644e515146101f657806339509351146102145780633f4ba83a1461024457806340c10f191461024e5780635c975abb1461026a57610137565b806306fdde031461013c578063095ea7b31461015a57806318160ddd1461018a57806323b872dd146101a8578063313ce567146101d8575b600080fd5b610144610400565b6040516101519190611a97565b60405180910390f35b610174600480360381019061016f9190611b52565b610492565b6040516101819190611bad565b60405180910390f35b6101926104b5565b60405161019f9190611bd7565b60405180910390f35b6101c260048036038101906101bd9190611bf2565b6104bf565b6040516101cf9190611bad565b60405180910390f35b6101e06104ee565b6040516101ed9190611c61565b60405180910390f35b6101fe6104f7565b60405161020b9190611c95565b60405180910390f35b61022e60048036038101906102299190611b52565b610506565b60405161023b9190611bad565b60405180910390f35b61024c61053d565b005b61026860048036038101906102639190611b52565b6105c3565b005b61027261064d565b60405161027f9190611bad565b60405180910390f35b6102a2600480360381019061029d9190611cb0565b610664565b6040516102af9190611bd7565b60405180910390f35b6102c06106ac565b005b6102dc60048036038101906102d79190611cb0565b610734565b6040516102e99190611bd7565b60405180910390f35b6102fa610784565b005b61030461080a565b6040516103119190611cec565b60405180910390f35b610322610834565b60405161032f9190611a97565b60405180910390f35b610352600480360381019061034d9190611b52565b6108c6565b60405161035f9190611bad565b60405180910390f35b610382600480360381019061037d9190611b52565b61093d565b60405161038f9190611bad565b60405180910390f35b6103b260048036038101906103ad9190611d5f565b610960565b005b6103ce60048036038101906103c99190611e01565b610aa2565b6040516103db9190611bd7565b60405180910390f35b6103fe60048036038101906103f99190611cb0565b610b29565b005b60606003805461040f90611e70565b80601f016020809104026020016040519081016040528092919081815260200182805461043b90611e70565b80156104885780601f1061045d57610100808354040283529160200191610488565b820191906000526020600020905b81548152906001019060200180831161046b57829003601f168201915b5050505050905090565b60008061049d610c26565b90506104aa818585610c2e565b600191505092915050565b6000600254905090565b6000806104ca610c26565b90506104d7858285610df9565b6104e2858585610e85565b60019150509392505050565b60006012905090565b6000610501611106565b905090565b600080610511610c26565b90506105328185856105238589610aa2565b61052d9190611ed1565b610c2e565b600191505092915050565b610545610c26565b73ffffffffffffffffffffffffffffffffffffffff1661056361080a565b73ffffffffffffffffffffffffffffffffffffffff16146105b9576040517f08c379a00000000000000000000000000000000000000000000000000000000081526004016105b090611f73565b60405180910390fd5b6105c1611220565b565b6105cb610c26565b73ffffffffffffffffffffffffffffffffffffffff166105e961080a565b73ffffffffffffffffffffffffffffffffffffffff161461063f576040517f08c379a000000000000000000000000000000000000000000000000000000000815260040161063690611f73565b60405180910390fd5b61064982826112c2565b5050565b6000600560009054906101000a900460ff16905090565b60008060008373ffffffffffffffffffffffffffffffffffffffff1673ffffffffffffffffffffffffffffffffffffffff168152602001908152602001600020549050919050565b6106b4610c26565b73ffffffffffffffffffffffffffffffffffffffff166106d261080a565b73ffffffffffffffffffffffffffffffffffffffff1614610728576040517f08c379a000000000000000000000000000000000000000000000000000000000815260040161071f90611f73565b60405180910390fd5b6107326000611422565b565b600061077d600660008473ffffffffffffffffffffffffffffffffffffffff1673ffffffffffffffffffffffffffffffffffffffff1681526020019081526020016000206114e8565b9050919050565b61078c610c26565b73ffffffffffffffffffffffffffffffffffffffff166107aa61080a565b73ffffffffffffffffffffffffffffffffffffffff1614610800576040517f08c379a00000000000000000000000000000000000000000000000000000000081526004016107f790611f73565b60405180910390fd5b6108086114f6565b565b6000600560019054906101000a900473ffffffffffffffffffffffffffffffffffffffff16905090565b60606004805461084390611e70565b80601f016020809104026020016040519081016040528092919081815260200182805461086f90611e70565b80156108bc5780601f10610891576101008083540402835291602001916108bc565b820191906000526020600020905b81548152906001019060200180831161089f57829003601f168201915b5050505050905090565b6000806108d1610c26565b905060006108df8286610aa2565b905083811015610924576040517f08c379a000000000000000000000000000000000000000000000000000000000815260040161091b90612005565b60405180910390fd5b6109318286868403610c2e565b60019250505092915050565b600080610948610c26565b9050610955818585610e85565b600191505092915050565b834211156109a3576040517f08c379a000000000000000000000000000000000000000000000000000000000815260040161099a90612071565b60405180910390fd5b60007f6e71edae12b1b97f4d1f60370fef10105fa2faae0126114a169c64845d6126c98888886109d28c611599565b896040516020016109e896959493929190612091565b6040516020818303038152906040528051906020012090506000610a0b826115f7565b90506000610a1b82878787611611565b90508973ffffffffffffffffffffffffffffffffffffffff168173ffffffffffffffffffffffffffffffffffffffff1614610a8b576040517f08c379a0000000000000000000000000000000000000000000000000000000008152600401610a829061213e565b60405180910390fd5b610a968a8a8a610c2e565b50505050505050505050565b6000600160008473ffffffffffffffffffffffffffffffffffffffff1673ffffffffffffffffffffffffffffffffffffffff16815260200190815260200160002060008373ffffffffffffffffffffffffffffffffffffffff1673ffffffffffffffffffffffffffffffffffffffff16815260200190815260200160002054905092915050565b610b31610c26565b73ffffffffffffffffffffffffffffffffffffffff16610b4f61080a565b73ffffffffffffffffffffffffffffffffffffffff1614610ba5576040517f08c379a0000000000000000000000000000000000000000000000000000000008152600401610b9c90611f73565b60405180910390fd5b600073ffffffffffffffffffffffffffffffffffffffff168173ffffffffffffffffffffffffffffffffffffffff161415610c15576040517f08c379a0000000000000000000000000000000000000000000000000000000008152600401610c0c906121d0565b60405180910390fd5b610c1e81611422565b50565b505050565b600033905090565b600073ffffffffffffffffffffffffffffffffffffffff168373ffffffffffffffffffffffffffffffffffffffff161415610c9e576040517f08c379a0000000000000000000000000000000000000000000000000000000008152600401610c9590612262565b60405180910390fd5b600073ffffffffffffffffffffffffffffffffffffffff168273ffffffffffffffffffffffffffffffffffffffff161415610d0e576040517f08c379a0000000000000000000000000000000000000000000000000000000008152600401610d05906122f4565b60405180910390fd5b80600160008573ffffffffffffffffffffffffffffffffffffffff1673ffffffffffffffffffffffffffffffffffffffff16815260200190815260200160002060008473ffffffffffffffffffffffffffffffffffffffff1673ffffffffffffffffffffffffffffffffffffffff168152602001908152602001600020819055508173ffffffffffffffffffffffffffffffffffffffff168373ffffffffffffffffffffffffffffffffffffffff167f8c5be1e5ebec7d5bd14f71427d1e84f3dd0314c0f7b2291e5b200ac8c7c3b92583604051610dec9190611bd7565b60405180910390a3505050565b6000610e058484610aa2565b90507fffffffffffffffffffffffffffffffffffffffffffffffffffffffffffffffff8114610e7f5781811015610e71576040517f08c379a0000000000000000000000000000000000000000000000000000000008152600401610e6890612360565b60405180910390fd5b610e7e8484848403610c2e565b5b50505050565b600073ffffffffffffffffffffffffffffffffffffffff168373ffffffffffffffffffffffffffffffffffffffff161415610ef5576040517f08c379a0000000000000000000000000000000000000000000000000000000008152600401610eec906123f2565b60405180910390fd5b600073ffffffffffffffffffffffffffffffffffffffff168273ffffffffffffffffffffffffffffffffffffffff161415610f65576040517f08c379a0000000000000000000000000000000000000000000000000000000008152600401610f5c90612484565b60405180910390fd5b610f7083838361163c565b60008060008573ffffffffffffffffffffffffffffffffffffffff1673ffffffffffffffffffffffffffffffffffffffff16815260200190815260200160002054905081811015610ff6576040517f08c379a0000000000000000000000000000000000000000000000000000000008152600401610fed90612516565b60405180910390fd5b8181036000808673ffffffffffffffffffffffffffffffffffffffff1673ffffffffffffffffffffffffffffffffffffffff16815260200190815260200160002081905550816000808573ffffffffffffffffffffffffffffffffffffffff1673ffffffffffffffffffffffffffffffffffffffff16815260200190815260200160002060008282546110899190611ed1565b925050819055508273ffffffffffffffffffffffffffffffffffffffff168473ffffffffffffffffffffffffffffffffffffffff167fddf252ad1be2c89b69c2b068fc378daa952ba7f163c4a11628f55a4df523b3ef846040516110ed9190611bd7565b60405180910390a3611100848484611694565b50505050565b60007f000000000000000000000000000000000000000000000000000000000000000073ffffffffffffffffffffffffffffffffffffffff163073ffffffffffffffffffffffffffffffffffffffff1614801561118257507f000000000000000000000000000000000000000000000000000000000000000046145b156111af577f0000000000000000000000000000000000000000000000000000000000000000905061121d565b61121a7f00000000000000000000000000000000000000000000000000000000000000007f00000000000000000000000000000000000000000000000000000000000000007f0000000000000000000000000000000000000000000000000000000000000000611699565b90505b90565b61122861064d565b611267576040517f08c379a000000000000000000000000000000000000000000000000000000000815260040161125e90612582565b60405180910390fd5b6000600560006101000a81548160ff0219169083151502179055507f5db9ee0a495bf2e6ff9c91a7834c1ba4fdd244a5e8aa4e537bd38aeae4b073aa6112ab610c26565b6040516112b89190611cec565b60405180910390a1565b600073ffffffffffffffffffffffffffffffffffffffff168273ffffffffffffffffffffffffffffffffffffffff161415611332576040517f08c379a0000000000000000000000000000000000000000000000000000000008152600401611329906125ee565b60405180910390fd5b61133e6000838361163c565b80600260008282546113509190611ed1565b92505081905550806000808473ffffffffffffffffffffffffffffffffffffffff1673ffffffffffffffffffffffffffffffffffffffff16815260200190815260200160002060008282546113a59190611ed1565b925050819055508173ffffffffffffffffffffffffffffffffffffffff16600073ffffffffffffffffffffffffffffffffffffffff167fddf252ad1be2c89b69c2b068fc378daa952ba7f163c4a11628f55a4df523b3ef8360405161140a9190611bd7565b60405180910390a361141e60008383611694565b5050565b6000600560019054906101000a900473ffffffffffffffffffffffffffffffffffffffff16905081600560016101000a81548173ffffffffffffffffffffffffffffffffffffffff021916908373ffffffffffffffffffffffffffffffffffffffff1602179055508173ffffffffffffffffffffffffffffffffffffffff168173ffffffffffffffffffffffffffffffffffffffff167f8be0079c531659141344cd1fd0a4f28419497f9722a3daafe3b4186f6b6457e060405160405180910390a35050565b600081600001549050919050565b6114fe61064d565b1561153e576040517f08c379a00000000000000000000000000000000000000000000000000000000081526004016115359061265a565b60405180910390fd5b6001600560006101000a81548160ff0219169083151502179055507f62e78cea01bee320cd4e420270b5ea74000d11b0c9f74754ebdbfc544b05a258611582610c26565b60405161158f9190611cec565b60405180910390a1565b600080600660008473ffffffffffffffffffffffffffffffffffffffff1673ffffffffffffffffffffffffffffffffffffffff16815260200190815260200160002090506115e6816114e8565b91506115f1816116d3565b50919050565b600061160a611604611106565b836116e9565b9050919050565b60008060006116228787878761171c565b9150915061162f81611829565b8192505050949350505050565b61164461064d565b15611684576040517f08c379a000000000000000000000000000000000000000000000000000000000815260040161167b9061265a565b60405180910390fd5b61168f838383610c21565b505050565b505050565b600083838346306040516020016116b495949392919061267a565b6040516020818303038152906040528051906020012090509392505050565b6001816000016000828254019250508190555050565b600082826040516020016116fe929190612745565b60405160208183030381529060405280519060200120905092915050565b6000807f7fffffffffffffffffffffffffffffff5d576e7357a4501ddfe92f46681b20a08360001c1115611757576000600391509150611820565b601b8560ff161415801561176f5750601c8560ff1614155b15611781576000600491509150611820565b6000600187878787604051600081526020016040526040516117a6949392919061277c565b6020604051602081039080840390855afa1580156117c8573d6000803e3d6000fd5b505050602060405103519050600073ffffffffffffffffffffffffffffffffffffffff168173ffffffffffffffffffffffffffffffffffffffff16141561181757600060019250925050611820565b80600092509250505b94509492505050565b6000600481111561183d5761183c6127c1565b5b8160048111156118505761184f6127c1565b5b141561185b576119fb565b6001600481111561186f5761186e6127c1565b5b816004811115611882576118816127c1565b5b14156118c3576040517f08c379a00000000000000000000000000000000000000000000000000000000081526004016118ba9061283c565b60405180910390fd5b600260048111156118d7576118d66127c1565b5b8160048111156118ea576118e96127c1565b5b141561192b576040517f08c379a0000000000000000000000000000000000000000000000000000000008152600401611922906128a8565b60405180910390fd5b6003600481111561193f5761193e6127c1565b5b816004811115611952576119516127c1565b5b1415611993576040517f08c379a000000000000000000000000000000000000000000000000000000000815260040161198a9061293a565b60405180910390fd5b6004808111156119a6576119a56127c1565b5b8160048111156119b9576119b86127c1565b5b14156119fa576040517f08c379a00000000000000000000000000000000000000000000000000000000081526004016119f1906129cc565b60405180910390fd5b5b50565b600081519050919050565b600082825260208201905092915050565b60005b83811015611a38578082015181840152602081019050611a1d565b83811115611a47576000848401525b50505050565b6000601f19601f8301169050919050565b6000611a69826119fe565b611a738185611a09565b9350611a83818560208601611a1a565b611a8c81611a4d565b840191505092915050565b60006020820190508181036000830152611ab18184611a5e565b905092915050565b600080fd5b600073ffffffffffffffffffffffffffffffffffffffff82169050919050565b6000611ae982611abe565b9050919050565b611af981611ade565b8114611b0457600080fd5b50565b600081359050611b1681611af0565b92915050565b6000819050919050565b611b2f81611b1c565b8114611b3a57600080fd5b50565b600081359050611b4c81611b26565b92915050565b60008060408385031215611b6957611b68611ab9565b5b6000611b7785828601611b07565b9250506020611b8885828601611b3d565b9150509250929050565b60008115159050919050565b611ba781611b92565b82525050565b6000602082019050611bc26000830184611b9e565b92915050565b611bd181611b1c565b82525050565b6000602082019050611bec6000830184611bc8565b92915050565b600080600060608486031215611c0b57611c0a611ab9565b5b6000611c1986828701611b07565b9350506020611c2a86828701611b07565b9250506040611c3b86828701611b3d565b9150509250925092565b600060ff82169050919050565b611c5b81611c45565b82525050565b6000602082019050611c766000830184611c52565b92915050565b6000819050919050565b611c8f81611c7c565b82525050565b6000602082019050611caa6000830184611c86565b92915050565b600060208284031215611cc657611cc5611ab9565b5b6000611cd484828501611b07565b91505092915050565b611ce681611ade565b82525050565b6000602082019050611d016000830184611cdd565b92915050565b611d1081611c45565b8114611d1b57600080fd5b50565b600081359050611d2d81611d07565b92915050565b611d3c81611c7c565b8114611d4757600080fd5b50565b600081359050611d5981611d33565b92915050565b600080600080600080600060e0888a031215611d7e57611d7d611ab9565b5b6000611d8c8a828b01611b07565b9750506020611d9d8a828b01611b07565b9650506040611dae8a828b01611b3d565b9550506060611dbf8a828b01611b3d565b9450506080611dd08a828b01611d1e565b93505060a0611de18a828b01611d4a565b92505060c0611df28a828b01611d4a565b91505092959891949750929550565b60008060408385031215611e1857611e17611ab9565b5b6000611e2685828601611b07565b9250506020611e3785828601611b07565b9150509250929050565b7f4e487b7100000000000000000000000000000000000000000000000000000000600052602260045260246000fd5b60006002820490506001821680611e8857607f821691505b60208210811415611e9c57611e9b611e41565b5b50919050565b7f4e487b7100000000000000000000000000000000000000000000000000000000600052601160045260246000fd5b6000611edc82611b1c565b9150611ee783611b1c565b9250827fffffffffffffffffffffffffffffffffffffffffffffffffffffffffffffffff03821115611f1c57611f1b611ea2565b5b828201905092915050565b7f4f776e61626c653a2063616c6c6572206973206e6f7420746865206f776e6572600082015250565b6000611f5d602083611a09565b9150611f6882611f27565b602082019050919050565b60006020820190508181036000830152611f8c81611f50565b9050919050565b7f45524332303a2064656372656173656420616c6c6f77616e63652062656c6f7760008201527f207a65726f000000000000000000000000000000000000000000000000000000602082015250565b6000611fef602583611a09565b9150611ffa82611f93565b604082019050919050565b6000602082019050818103600083015261201e81611fe2565b9050919050565b7f45524332305065726d69743a206578706972656420646561646c696e65000000600082015250565b600061205b601d83611a09565b915061206682612025565b602082019050919050565b6000602082019050818103600083015261208a8161204e565b9050919050565b600060c0820190506120a66000830189611c86565b6120b36020830188611cdd565b6120c06040830187611cdd565b6120cd6060830186611bc8565b6120da6080830185611bc8565b6120e760a0830184611bc8565b979650505050505050565b7f45524332305065726d69743a20696e76616c6964207369676e61747572650000600082015250565b6000612128601e83611a09565b9150612133826120f2565b602082019050919050565b600060208201905081810360008301526121578161211b565b9050919050565b7f4f776e61626c653a206e6577206f776e657220697320746865207a65726f206160008201527f6464726573730000000000000000000000000000000000000000000000000000602082015250565b60006121ba602683611a09565b91506121c58261215e565b604082019050919050565b600060208201905081810360008301526121e9816121ad565b9050919050565b7f45524332303a20617070726f76652066726f6d20746865207a65726f2061646460008201527f7265737300000000000000000000000000000000000000000000000000000000602082015250565b600061224c602483611a09565b9150612257826121f0565b604082019050919050565b6000602082019050818103600083015261227b8161223f565b9050919050565b7f45524332303a20617070726f766520746f20746865207a65726f20616464726560008201527f7373000000000000000000000000000000000000000000000000000000000000602082015250565b60006122de602283611a09565b91506122e982612282565b604082019050919050565b6000602082019050818103600083015261230d816122d1565b9050919050565b7f45524332303a20696e73756666696369656e7420616c6c6f77616e6365000000600082015250565b600061234a601d83611a09565b915061235582612314565b602082019050919050565b600060208201905081810360008301526123798161233d565b9050919050565b7f45524332303a207472616e736665722066726f6d20746865207a65726f20616460008201527f6472657373000000000000000000000000000000000000000000000000000000602082015250565b60006123dc602583611a09565b91506123e782612380565b604082019050919050565b6000602082019050818103600083015261240b816123cf565b9050919050565b7f45524332303a207472616e7366657220746f20746865207a65726f206164647260008201527f6573730000000000000000000000000000000000000000000000000000000000602082015250565b600061246e602383611a09565b915061247982612412565b604082019050919050565b6000602082019050818103600083015261249d81612461565b9050919050565b7f45524332303a207472616e7366657220616d6f756e742065786365656473206260008201527f616c616e63650000000000000000000000000000000000000000000000000000602082015250565b6000612500602683611a09565b915061250b826124a4565b604082019050919050565b6000602082019050818103600083015261252f816124f3565b9050919050565b7f5061757361626c653a206e6f7420706175736564000000000000000000000000600082015250565b600061256c601483611a09565b915061257782612536565b602082019050919050565b6000602082019050818103600083015261259b8161255f565b9050919050565b7f45524332303a206d696e7420746f20746865207a65726f206164647265737300600082015250565b60006125d8601f83611a09565b91506125e3826125a2565b602082019050919050565b60006020820190508181036000830152612607816125cb565b9050919050565b7f5061757361626c653a2070617573656400000000000000000000000000000000600082015250565b6000612644601083611a09565b915061264f8261260e565b602082019050919050565b6000602082019050818103600083015261267381612637565b9050919050565b600060a08201905061268f6000830188611c86565b61269c6020830187611c86565b6126a96040830186611c86565b6126b66060830185611bc8565b6126c36080830184611cdd565b9695505050505050565b600081905092915050565b7f1901000000000000000000000000000000000000000000000000000000000000600082015250565b600061270e6002836126cd565b9150612719826126d8565b600282019050919050565b6000819050919050565b61273f61273a82611c7c565b612724565b82525050565b600061275082612701565b915061275c828561272e565b60208201915061276c828461272e565b6020820191508190509392505050565b60006080820190506127916000830187611c86565b61279e6020830186611c52565b6127ab6040830185611c86565b6127b86060830184611c86565b95945050505050565b7f4e487b7100000000000000000000000000000000000000000000000000000000600052602160045260246000fd5b7f45434453413a20696e76616c6964207369676e61747572650000000000000000600082015250565b6000612826601883611a09565b9150612831826127f0565b602082019050919050565b6000602082019050818103600083015261285581612819565b9050919050565b7f45434453413a20696e76616c6964207369676e6174757265206c656e67746800600082015250565b6000612892601f83611a09565b915061289d8261285c565b602082019050919050565b600060208201905081810360008301526128c181612885565b9050919050565b7f45434453413a20696e76616c6964207369676e6174757265202773272076616c60008201527f7565000000000000000000000000000000000000000000000000000000000000602082015250565b6000612924602283611a09565b915061292f826128c8565b604082019050919050565b6000602082019050818103600083015261295381612917565b9050919050565b7f45434453413a20696e76616c6964207369676e6174757265202776272076616c60008201527f7565000000000000000000000000000000000000000000000000000000000000602082015250565b60006129b6602283611a09565b91506129c18261295a565b604082019050919050565b600060208201905081810360008301526129e5816129a9565b905091905056fea2646970667358221220e37463db7e2f301b21d0e23d2b97b822f92518777a40f00b654e519f927cb66664736f6c63430008090033",
    "immutableReferences": {
        "1805": [
            {
                "length": 32,
                "start": 4489
            }
        ],
        "1807": [
            {
                "length": 32,
                "start": 4448
            }
        ],
        "1809": [
            {
                "length": 32,
                "start": 4362
            }
        ],
        "1811": [
            {
                "length": 32,
                "start": 4565
            }
        ],
        "1813": [
            {
                "length": 32,
                "start": 4598
            }
        ],
        "1815": [
            {
                "length": 32,
                "start": 4532
            }
        ]
    },
    "source": "// SPDX-License-Identifier: MIT\npragma solidity ^0.8.9;\n\nimport \"@openzeppelin/contracts/token/ERC20/ERC20.sol\";\nimport \"@openzeppelin/contracts/security/Pausable.sol\";\nimport \"@openzeppelin/contracts/access/Ownable.sol\";\nimport \"@openzeppelin/contracts/token/ERC20/extensions/draft-ERC20Permit.sol\";\n\ncontract RocketToken is ERC20, Pausable, Ownable, ERC20Permit {\n    constructor() ERC20(\"RocketToken\", \"ROCKET\") ERC20Permit(\"RocketToken\") {\n        _mint(msg.sender, 1000000 * 10 ** decimals());\n    }\n\n    function pause() public onlyOwner {\n        _pause();\n    }\n\n    function unpause() public onlyOwner {\n        _unpause();\n    }\n\n    function mint(address to, uint256 amount) public onlyOwner {\n        _mint(to, amount);\n    }\n\n    function _beforeTokenTransfer(address from, address to, uint256 amount)\n        internal\n        whenNotPaused\n        override\n    {\n        super._beforeTokenTransfer(from, to, amount);\n    }\n}",
    "sourcePath": "/home/mathieuhoude/source/MathieuHoude/RocketElevatorsERC20Token/contracts/RocketToken.sol",
    "compiler": {
        "name": "solc",
        "version": "0.8.9+commit.e5eed63a.Emscripten.clang"
    },
    "schemaVersion": "3.4.3",
    "updatedAt": "2022-04-27T03:08:08.293Z",
    "networkType": "ethereum",
    "devdoc": {
        "kind": "dev",
        "methods": {
            "DOMAIN_SEPARATOR()": {
                "details": "See {IERC20Permit-DOMAIN_SEPARATOR}."
            },
            "allowance(address,address)": {
                "details": "See {IERC20-allowance}."
            },
            "approve(address,uint256)": {
                "details": "See {IERC20-approve}. NOTE: If `amount` is the maximum `uint256`, the allowance is not updated on `transferFrom`. This is semantically equivalent to an infinite approval. Requirements: - `spender` cannot be the zero address."
            },
            "balanceOf(address)": {
                "details": "See {IERC20-balanceOf}."
            },
            "decimals()": {
                "details": "Returns the number of decimals used to get its user representation. For example, if `decimals` equals `2`, a balance of `505` tokens should be displayed to a user as `5.05` (`505 / 10 ** 2`). Tokens usually opt for a value of 18, imitating the relationship between Ether and Wei. This is the value {ERC20} uses, unless this function is overridden; NOTE: This information is only used for _display_ purposes: it in no way affects any of the arithmetic of the contract, including {IERC20-balanceOf} and {IERC20-transfer}."
            },
            "decreaseAllowance(address,uint256)": {
                "details": "Atomically decreases the allowance granted to `spender` by the caller. This is an alternative to {approve} that can be used as a mitigation for problems described in {IERC20-approve}. Emits an {Approval} event indicating the updated allowance. Requirements: - `spender` cannot be the zero address. - `spender` must have allowance for the caller of at least `subtractedValue`."
            },
            "increaseAllowance(address,uint256)": {
                "details": "Atomically increases the allowance granted to `spender` by the caller. This is an alternative to {approve} that can be used as a mitigation for problems described in {IERC20-approve}. Emits an {Approval} event indicating the updated allowance. Requirements: - `spender` cannot be the zero address."
            },
            "name()": {
                "details": "Returns the name of the token."
            },
            "nonces(address)": {
                "details": "See {IERC20Permit-nonces}."
            },
            "owner()": {
                "details": "Returns the address of the current owner."
            },
            "paused()": {
                "details": "Returns true if the contract is paused, and false otherwise."
            },
            "permit(address,address,uint256,uint256,uint8,bytes32,bytes32)": {
                "details": "See {IERC20Permit-permit}."
            },
            "renounceOwnership()": {
                "details": "Leaves the contract without owner. It will not be possible to call `onlyOwner` functions anymore. Can only be called by the current owner. NOTE: Renouncing ownership will leave the contract without an owner, thereby removing any functionality that is only available to the owner."
            },
            "symbol()": {
                "details": "Returns the symbol of the token, usually a shorter version of the name."
            },
            "totalSupply()": {
                "details": "See {IERC20-totalSupply}."
            },
            "transfer(address,uint256)": {
                "details": "See {IERC20-transfer}. Requirements: - `to` cannot be the zero address. - the caller must have a balance of at least `amount`."
            },
            "transferFrom(address,address,uint256)": {
                "details": "See {IERC20-transferFrom}. Emits an {Approval} event indicating the updated allowance. This is not required by the EIP. See the note at the beginning of {ERC20}. NOTE: Does not update the allowance if the current allowance is the maximum `uint256`. Requirements: - `from` and `to` cannot be the zero address. - `from` must have a balance of at least `amount`. - the caller must have allowance for ``from``'s tokens of at least `amount`."
            },
            "transferOwnership(address)": {
                "details": "Transfers ownership of the contract to a new account (`newOwner`). Can only be called by the current owner."
            }
        },
        "version": 1
    },
    "userdoc": {
        "kind": "user",
        "methods": {},
        "version": 1
    }
}